S0270000544233323136205265636569766520436F6E74726F6C20436F6D6D616E64732E7372656365
S113000071C0000086C0000084C0000082C00000EF
S11300102DC200007EC000007CC000007AC0000039
S113002078C0000076C0000074C0000072C00000F8
S113003070C000006EC000006CC000006AC0000008
S113004068C0000066C0000064C0000062C0000018
S113005060C000005EC000005CC000005AC0000028
S113006058C0000056C0000054C0000052C0000038
S113007050C000004EC000004CC000004AC0000048
S113008048C0000046C0000044C0000042C0000058
S113009040C000003EC000003CC000003AC0000068
S11300A038C0000036C0000034C0000032C0000078
S11300B030C000002EC000002CC000002AC0000088
S11300C028C0000026C0000024C0000022C0000098
S11300D020C000001EC000001CC000001AC00000A8
S11300E018C0000011241FBECFEFD1E2DEBFCDBF88
S11300F000E00CBF12E0A0E0B2E0E2E4F5E000E0D2
S11301000BBF02C007900D92A03CB107D9F7D9D11B
S113011016C276CF87B18FEF87B980B3806780BB73
S113012083B3836083BB81B1876081B9E1E0F1E08F
S113013080818C618083E1ECF0E080818F7E80831C
S11301408081877F8083E2E0F1E080818460808326
S11301508081877F808380818061808382B1816098
S113016082B982B1826082B982B18B7F82B988B14F
S11301708E7F88B988B18D7F88B988B1846088B949
S113018088B1886088B988B1806188B988B1806293
S113019088B988B1806488B988B18F7788B984B305
S11301A08E7F84BB84B38D7F84BB81B3806181BB2C
S11301B081B3806281BB81B3806481BB089587B1C0
S11301C08FEF87B980B3806780BB83B3836083BBC1
S11301D081B1876081B9E1E0F1E080818C61808345
S11301E0E1ECF0E08081806180838081886080839D
S11301F0E2E0F1E080818B7F80838081886080836E
S113020080818F7E808382B18E7F82B982B18D7F1F
S113021082B982B1846082B988B1816088B988B1B9
S1130220826088B988B18B7F88B988B1877F88B9A3
S113023088B18F7E88B988B18F7D88B988B18F7B6A
S113024088B988B1806888B984B3816084BB84B379
S1130250826084BB81B38F7E81BB81B38F7D81BB80
S113026081B38F7B81BB0895E1E0F1E080818064FC
S1130270808380818062808308958AB1877F8AB970
S11302808BB188608BB98DB18F778DB98EB1806851
S11302908EB9089587E690E09093C5008093C400DA
S11302A08DB18E7F8DB9E1ECF0E080818061808337
S11302B081B1826081B982B18D7F82B98DB1826052
S11302C08DB980818860808381B1846081B982B175
S11302D0846082B90895E9E6F0E0808180648083D7
S11302E08081806880838DB388608DBB089583B7D7
S11302F0817F846083BF0895E2E0F1E080818064BF
S113030080830895E2E0F1E080818F7B808308950B
S1130310E2E0F1E08081806280830895E2E0F1E030
S113032080818F7D80830895CF93DF93EC01F6DF86
S1130330E3DF20E030E015C0E2E0F1E0908180E20C
S113034089278083908180E4892780834FEF83EC21
S113035099E0415080409040E1F700C000002F5FD9
S11303603F4F2C173D0744F3D9DFCCDFDF91CF910A
S113037008959091C00095FFFCCF8093C600089526
S11303800F931F93CF93DF938C01C0E0D0E006C09E
S1130390F801EC0FFD1F8081ECDF2196F80101903C
S11303A00020E9F73197E01BF10BCE17DF0780F34C
S11303B0DF91CF911F910F9108958091C000882300
S11303C0E4F78091C6000895CF93DF93EC0160E0D9
S11303D072E0ACD0892B29F484E092E0D1DF92DF83
S11303E042C069E172E0CE01A1D0892B29F48EE1EB
S11303F092E0C6DF81DF37C064E372E0CE0196D0BD
S1130400892B29F488E392E0BBDF88DF2CC06FE4FA
S113041072E0CE018BD0892B29F484E592E0B0DF21
S113042077DF21C06CE672E0CE0180D0892B39F4ED
S113043082E792E0A5DF84E190E076DF14C06CE906
S113044072E0CE0173D0892B59F456DF61DF62DE8E
S113045083B7816083BF889583B78E7F83BF03C0D2
S113046082EA92E08DDFDF91CF9108951F920F927F
S11304700FB60F9211240BB60F922F933F934F9305
S11304805F936F937F938F939F93AF93BF93EF93F8
S1130490FF934B9B03C093DE35DF40DFFF91EF9169
S11304A0BF91AF919F918F917F916F915F914F9188
S11304B03F912F910F900BBE0F900FBE0F901F9086
S11304C01895CF93DF93CDB7DEB728970FB6F8947E
S11304D0DEBF0FBECDBFFFDEDDDEC6DECEDE07DF54
S11304E0789400E010E069DF8A3099F08D3089F06B
S11304F098012F5F3F4FE1E0F0E0EC0FFD1FE00FAC
S1130500F11F80832930310514F4890102C000E011
S113051010E08A3041F7E1E0F0E0EC0FFD1FE00F5E
S1130520F11F1082CE0101964FDFDBCFFB01DC010E
S11305308D91019080190110D9F3990B0895F894C5
S1050540FFCFE7
S1130542724F4E00526564204C4544206973206EFC
S11305526F77204F4E2E0D0A00724F4646005265A9
S113056264204C4544206973206E6F77204F4646C1
S11305722E0D0A00674F4E00477265656E204C458A
S113058244206973206E6F77204F4E2E0D0A006748
S11305924F464600477265656E204C454420697398
S11305A2206E6F77204F46462E0D0A00626C696EEC
S11305B26B00477265656E204C454420616E642071
S11305C2526564204C454420617265206E6F772029
S11305D2626C696E6B696E672E0D0A00736C6565D9
S11305E27000596F757220436F6D6D616E6420697E
S11305F27320756E646566696E65642E0D0A00006B
S9030000FC
