S0270000544233323136205265636569766520436F6E74726F6C20436F6D6D616E64732E7372656365
S113000071C0000086C0000084C0000082C00000EF
S113001093C100007EC000007CC000007AC00000D4
S113002078C0000076C0000074C0000072C00000F8
S113003070C000006EC000006CC000006AC0000008
S113004068C0000066C0000064C0000062C0000018
S113005060C000005EC000005CC000005AC0000028
S113006058C0000056C0000054C0000052C0000038
S113007050C000004EC000004CC000004AC0000048
S113008048C0000046C0000044C0000042C0000058
S113009040C000003EC000003CC000003AC0000068
S11300A038C0000036C0000034C0000032C0000078
S11300B030C000002EC000002CC000002AC0000088
S11300C028C0000026C0000024C0000022C0000098
S11300D020C000001EC000001CC000001AC00000A8
S11300E018C0000011241FBECFEFD1E2DEBFCDBF88
S11300F000E00CBF12E0A0E0B2E0E6E1F4E000E0D2
S11301000BBF02C007900D92AA3EB107D9F744D1A4
S113011080C176CFE1E0F1E08081806480838081DA
S11301208062808308958AB1877F8AB98BB18860A1
S11301308BB98DB18F778DB98EB180688EB90895E2
S113014087E690E09093C5008093C4008DB18E7FC4
S11301508DB9E1ECF0E080818061808381B18260BF
S113016081B982B18D7F82B98DB182608DB9808170
S11301708860808381B1846081B982B1846082B9EE
S11301800895E9E6F0E0808180648083808180685E
S113019080838DB388608DBBE8E6F0E08081816068
S11301A08083EBE6F0E08081806880837894089512
S11301B083B7817F846083BF0895E2E0F1E08081AA
S11301C0806480830895E2E0F1E080818F7B808306
S11301D00895E2E0F1E08081806280830895E2E0A6
S11301E0F1E080818F7D80830895CF93DF93EC01CC
S11301F0F6DFE3DF20E030E015C0E2E0F1E09081DB
S113020080E289278083908180E4892780834FEF6F
S113021083EC99E0415080409040E1F700C0000039
S11302202F5F3F4F2C173D0744F3D9DFCCDFDF911D
S1130230CF9108959091C00095FFFCCF8093C600A4
S113024008950F931F93CF93DF938C01C0E0D0E008
S113025006C0F801EC0FFD1F8081ECDF2196F80148
S113026001900020E9F73197E01BF10BCE17DF076F
S113027080F3DF91CF911F910F9108958091C00079
S11302808823E4F78091C6000895CF93DF93EC01AF
S113029060E072E0B5D0892B29F484E092E0D1DFEC
S11302A092DF47C069E172E0CE01AAD0892B29F41C
S11302B08EE192E0C6DF81DF3CC064E372E0CE01F0
S11302C09FD0892B29F488E392E0BBDF88DF31C01B
S11302D06FE472E0CE0194D0892B29F484E592E096
S11302E0B0DF77DF26C06CE672E0CE0189D0892BBF
S11302F039F482E792E0A5DF84E190E076DF19C06B
S11303006CE972E0CE017CD0892B81F482EA92E020
S113031098DF83E090E069DF50DF5BDF83B78160C3
S113032083BF889583B78E7F83BF03C08AEB92E037
S113033088DFDF91CF9108951F920F920FB60F922D
S113034011240BB60F922F933F934F935F936F93A8
S11303507F938F939F93AF93BF93EF93FF934B9BA5
S113036008C087ED92E06DDF85E090E03EDF37DF87
S11303702ADFFF91EF91BF91AF919F918F917F9170
S11303806F915F914F913F912F910F900BBE0F9002
S11303900FBE0F901F901895CF93DF93CDB7DEB7A4
S11303A028970FB6F894DEBF0FBECDBFEADEC8DED5
S11303B0B1DEB9DEFDDE00E010E060DF8A3099F0E6
S11303C08D3089F098012F5F3F4FE1E0F0E0EC0FB2
S11303D0FD1FE00FF11F80832930310514F48901DA
S11303E002C000E010E08A3041F7E1E0F0E0EC0FF9
S11303F0FD1FE00FF11F1082CE01019646DFDBCF17
S1130400FB01DC018D91019080190110D9F3990B46
S10904100895F894FFCFEB
S1130416724F4E00526564204C4544206973206E29
S11304266F77204F4E2E0D0A00724F4646005265D6
S113043664204C4544206973206E6F77204F4646EE
S11304462E0D0A00674F4E00477265656E204C45B7
S113045644206973206E6F77204F4E2E0D0A006775
S11304664F464600477265656E204C4544206973C5
S1130476206E6F77204F46462E0D0A00626C696E19
S11304866B00477265656E204C454420616E64209E
S1130496526564204C454420617265206E6F772056
S11304A6626C696E6B696E672E0D0A00736C656506
S11304B6700044657669636520696E20736C6565B2
S11304C670206D6F64652E0D0A00596F7572204396
S11304D66F6D6D616E6420697320756E64656669FF
S11304E66E65642E0D0A004465766963652069733A
S10D04F6206177616B652E0D0A008A
S9030000FC
