S018000041746D656C20696E74657272757074732E7372656399
S113000071C0000079C0000077C0000075C0000016
S113001073C0000071C000006FC00000DBC00000AE
S11300206BC000000CC1000067C0000065C0000088
S113003063C0000061C000005FC000005DC000003C
S11300405BC0000059C0000057C0000055C000004C
S113005053C0000051C000004FC000004DC000005C
S11300604BC0000049C0000047C0000045C000006C
S113007043C0000041C000003FC000003DC000007C
S11300803BC0000039C0000037C0000035C000008C
S113009033C0000031C000002FC000002DC000009C
S11300A02BC0000029C0000027C0000025C00000AC
S11300B023C0000021C000001FC000001DC00000BC
S11300C01BC0000019C0000017C0000015C00000CC
S11300D013C0000011C000000FC000000DC00000DC
S11300E00BC0000011241FBECFEFD1E2DEBFCDBF95
S11300F000E00CBFD9D0DFC083CF85B1806485B95F
S1130100089585B18F7B85B90895E2E0F1E080819F
S1130110806280830895E2E0F1E080818F7D8083B6
S11301200895AC0120E030E024C0E2E0F1E09081E9
S11301309F7D908395B1906495B98FE19EE401977A
S1130140F1F700C0000090819062908395B19F7B8D
S113015095B98FE19EE40197F1F700C00000C90151
S113016001974817590719F485B1806285B92F5F43
S11301703F4F24173507CCF2089584B1806484B9C5
S1130180E1E0F1E080818062808308958DB18F7B0E
S11301908DB98EB180648EB984B18F7E84B985B1F6
S11301A0806185B90895EAE6F0E08081806180830A
S11301B08081806280838DB380648DBBE8E6F0E04B
S11301C0808181608083EBE6F0E0808180618083C0
S11301D0789408951F920F920FB60F9211240BB6C4
S11301E00F922F933F934F935F936F937F938F93CC
S11301F09F93AF93BF93EF93FF93669B0DC08BDFE9
S11302007CDF2FEF81EE94E0215080409040E1F7B5
S113021000C000007ADF71DFFF91EF91BF91AF91D1
S11302209F918F917F916F915F914F913F912F910A
S11302300F900BBE0F900FBE0F901F9018951F923A
S11302400F920FB60F9211240BB60F922F933F9378
S11302504F935F936F937F938F939F93AF93BF93CA
S1130260EF93FF931C9B0DC04CDF4FDF2FEF81EE0C
S113027094E0215080409040E1F700C000003DDF51
S113028044DFFF91EF91BF91AF919F918F917F9147
S11302906F915F914F913F912F910F900BBE0F90F3
S11302A00FBE0F901F90189568DF70DF7CDF84EF1E
S10D02B091E037DFFFCFF894FFCF91
S9030000FC
