S0270000544233323136205265636569766520436F6E74726F6C20436F6D6D616E64732E7372656365
S113000071C0000086C0000084C0000082C00000EF
S113001080C000007EC000007CC000007AC00000E8
S113002078C0000076C0000074C0000072C00000F8
S113003070C000006EC000006CC000006AC0000008
S113004068C0000066C0000064C0000062C0000018
S113005060C000005EC000005CC000005AC0000028
S113006058C0000056C0000054C0000052C0000038
S113007050C000004EC000004CC000004AC0000048
S113008048C0000046C0000044C0000042C0000058
S113009040C000003EC000003CC000003AC0000068
S11300A038C0000036C0000034C0000032C0000078
S11300B030C000002EC000002CC000002AC0000088
S11300C028C0000026C0000024C0000022C0000098
S11300D020C000001EC000001CC000001AC00000A8
S11300E018C0000011241FBECFEFD1E2DEBFCDBF88
S11300F000E00CBF12E0A0E0B2E0EAE6F3E000E0CA
S11301000BBF02C007900D92AA3BB107D9F7F2D0FA
S11301102AC176CFE1E0F1E0808180648083E2E06F
S1130120F1E08081806480830895E1E0F1E08081E2
S113013080648083E2E0F1E080818F7B8083089596
S1130140E1E0F1E0808180628083E2E0F1E080819F
S1130150806280830895E1E0F1E0808180628083A1
S1130160E2E0F1E080818F7D80830895E1E0F1E0B9
S113017080818062808380818064808380E090E0DD
S11301802AC0E2E0F1E020812F7D208320812064D9
S113019020832FEF33EC49E0215030404040E1F719
S11301A000C0000020812062208320812F7B2083D7
S11301B02FEF33EC49E0215030404040E1F700C0DC
S11301C000008A30910531F420812062208320814F
S11301D02064208301968B3091059CF2089587E674
S11301E090E09093C5008093C4008DB18E7F8DB94B
S11301F0E1ECF0E080818061808381B1826081B92B
S113020082B18D7F82B98DB182608DB98081886021
S1130210808381B1846081B982B1846082B9089598
S11302209091C00095FFFCCF8093C60008950F9372
S11302301F93CF93DF938C01C0E0D0E006C0F80198
S1130240EC0FFD1F8081ECDF2196F8010190002066
S1130250E9F73197E01BF10BCE17DF0780F3DF914D
S1130260CF911F910F9108958091C0008823E4F7E6
S11302708091C6000895CF93DF93EC0160E072E0B3
S113028069D0892B29F484E092E0D1DF4EDF2FC0BE
S113029069E172E0CE015ED0892B29F48EE192E00F
S11302A0C6DF38DF24C064E372E0CE0153D0892B6B
S11302B029F488E392E0BBDF4EDF19C06FE472E0FB
S11302C0CE0148D0892B29F484E592E0B0DF38DFF1
S11302D00EC06CE672E0CE013DD0892B29F482E792
S11302E092E0A5DF43DF03C08CE992E0A0DFDF9159
S11302F0CF910895CF93DF93CDB7DEB728970FB68C
S1130300F894DEBF0FBECDBF6ADF00E010E0ACDFC3
S11303108A3099F08D3089F098012F5F3F4FE1E0EA
S1130320F0E0EC0FFD1FE00FF11F80832930310551
S113033014F4890102C000E010E08A3041F7E1E0E2
S1130340F0E0EC0FFD1FE00FF11F1082CE010196CB
S113035092DFDBCFFB01DC018D910190801901104C
S10D0360D9F3990B0895F894FFCF28
S113036A724F4E00526564204C4544206973206ED6
S113037A6F77204F4E2E0D0A00724F464600526583
S113038A64204C4544206973206E6F77204F46469B
S113039A2E0D0A00674F4E00477265656E204C4564
S11303AA44206973206E6F77204F4E2E0D0A006722
S11303BA4F464600477265656E204C454420697372
S11303CA206E6F77204F46462E0D0A00626C696EC6
S11303DA6B00477265656E204C454420616E64204B
S11303EA526564204C454420617265206E6F772003
S11303FA626C696E6B696E672E0D0A00596F7572AD
S113040A20436F6D6D616E6420697320756E646537
S10D041A66696E65642E0D0A000089
S9030000FC
