:1000000071C0000086C0000084C0000082C00000F3
:1000100080C000007EC000007CC000007AC00000EC
:1000200078C0000076C0000074C0000072C00000FC
:1000300070C000006EC000006CC000006AC000000C
:1000400068C0000066C0000064C0000062C000001C
:1000500060C000005EC000005CC000005AC000002C
:1000600058C0000056C0000054C0000052C000003C
:1000700050C000004EC000004CC000004AC000004C
:1000800048C0000046C0000044C0000042C000005C
:1000900040C000003EC000003CC000003AC000006C
:1000A00038C0000036C0000034C0000032C000007C
:1000B00030C000002EC000002CC000002AC000008C
:1000C00028C0000026C0000024C0000022C000009C
:1000D00020C000001EC000001CC000001AC00000AC
:1000E00018C0000011241FBECFEFD1E2DEBFCDBF8C
:1000F00000E00CBF12E0A0E0B2E0ECECF1E000E0C8
:100100000BBF02C007900D92A031B107D9F73BD0C9
:100110005BC076CF87E690E09093C5008093C400E3
:100120008DB182608DB9E1ECF0E0808188608083E0
:1001300081B1846081B982B1846082B9089590915F
:10014000C00095FFFCCF8093C60008950F931F93C6
:10015000CF93DF938C01C0E0D0E006C0F801EC0F34
:10016000FD1F8081ECDF2196F80101900020E9F766
:100170003197E01BF10BCE17DF0780F3DF91CF91B2
:100180001F910F910895CF93DF93CDB7DEB72F97CF
:100190000FB6F894DEBF0FBECDBF8FE0E0E0F2E017
:1001A000DE01119601900D928A95E1F7B3DFCE0141
:1001B0000196CCDF2FEF89E698E1215080409040F6
:0C01C000E1F700C00000F3CFF894FFCF7F
:1001CC0048656C6C6F20576F726C64210D0A0000CF
:00000001FF
